:020000040800F2
:1000000000A0002099300008DD300008DD30000835
:10001000DD300008DD300008DD30000800000000A1
:100020000000000000000000000000003123000874
:10003000DD3000080000000091250008F9250008C7
:10004000DD300008DD300008DD300008DD3000085C
:10005000DD300008DD300008DD300008DD3000084C
:10006000DD300008DD300008DD300008DD3000083C
:10007000DD300008DD300008DD300008DD3000082C
:10008000DD300008DD300008DD300008DD3000081C
:10009000DD300008DD300008DD300008DD3000080C
:1000A000DD300008DD300008DD300008DD300008FC
:1000B000DD300008DD300008DD300008DD300008EC
:1000C000DD300008DD300008DD300008DD300008DC
:1000D000DD300008DD300008DD300008DD300008CC
:1000E000DD300008DD300008DD300008DD300008BC
:1000F000DD300008DD300008DD300008DD300008AC
:10010000000000000000000000000000DD300008DA
:10011000DD300008DD300008DD300008DD3000088B
:10012000DD300008DD300008DD300008DD3000087B
:10013000DD300008DD300008000000000000000095
:10014000DD300008DD300008DD3000080000000070
:10015000000000000000000000000000000000009F
:100160000000000000000000DD300008DD30000865
:10017000DD3000080000000000000000000000006A
:1001800000000000DD30000880B483B000AF78606C
:100190000B46FB70FB78002B06D00A4B5A690949C5
:1001A0007B6813434B6106E0064B5A697B68DB436F
:1001B000044913404B6100BF0C37BD465DF8047B1A
:1001C000704700BF0010024080B483B000AF786079
:1001D0000B46FB70FB78002B06D00A4B9A69094945
:1001E0007B6813438B6106E0064B9A697B68DB43AF
:1001F000044913408B6100BF0C37BD465DF8047B9A
:10020000704700BF0010024080B487B000AF786034
:10021000396000237B6100233B610023FB600023E6
:100220007B617CE001227B6902FA03F33B613B685E
:100230001B683A691340FB60FA683B699A426BD1CC
:100240003B681B79012B03D03B681B79022B34D10F
:100250007B689A687B695B00032101FA03F3DB4347
:100260001A407B689A607B689A683B685B7919469C
:100270007B695B0001FA03F31A437B689A607B6831
:100280009B889AB27B699BB2194601238B409BB233
:10029000DB439BB213409AB27B689A807B689B8851
:1002A0009AB23B689B7919467B699BB201FA03F3CA
:1002B0009BB213439AB27B689A807B681A687B6909
:1002C0005B00032101FA03F3DB431A407B681A60E9
:1002D0007B681A683B681B7919467B695B0001FAE9
:1002E00003F31A437B681A607B68DA687B699BB208
:1002F0005B00032101FA03F3DB431A407B68DA60F9
:100300007B68DA683B68DB7919467B695B0001FA38
:1003100003F31A437B68DA607B6901337B617B6995
:100320000F2B7FF67FAF00BF1C37BD465DF8047B07
:10033000704780B483B000AF78607B684FF6FF727F
:100340001A607B6800221A717B6802225A717B68EE
:1003500000229A717B680022DA7100BF0C37BD461B
:100360005DF8047B704780B483B000AF78600B46C3
:100370007B807A887B689A6100BF0C37BD465DF848
:10038000047B704780B483B000AF78600B467B80FD
:100390007B687A881A8500BF0C37BD465DF8047B00
:1003A000704780B483B000AF78600B467B807B6879
:1003B0007A889A8200BF0C37BD465DF8047B70478F
:1003C00080B485B000AF78600B467B8013467B70AD
:1003D0000023FB600023BB607A787B8803F007036F
:1003E0009B0002FA03F3FB607B88DB089BB21A4692
:1003F0007B68083253F822207B8803F007039B00B8
:100400000F2101FA03F3DB437988C90889B2084652
:1004100002EA03017B6800F1080243F822107B889E
:10042000DB089BB21A467B68083253F82230FA6820
:100430001343BB607B88DB089BB21A467B6808329B
:10044000B96843F8221000BF1437BD465DF8047B3D
:100450007047000080B582B000AF01214FF400303A
:10046000FFF792FE01214FF40010FFF78DFE3B468F
:100470001846FFF75EFF4FF47F433B6001233B715B
:1004800001237B710023BB710023FB713B4619469E
:100490001F48FFF7B9FE3B461846FFF74AFF0823FF
:1004A0003B6001233B7101237B710023BB7100235F
:1004B000FB713B4619461648FFF7A6FE3B46184619
:1004C000FFF737FFE0233B6002233B7101237B7181
:1004D0000023BB710023FB713B4619464FF090404F
:1004E000FFF792FE052205214FF09040FFF768FFCD
:1004F000052206214FF09040FFF762FF05220721F9
:100500004FF09040FFF75CFF00BF0837BD4680BD4D
:100510000010004880B586B000AF01214FF4805034
:10052000FFF752FE3B1D184601F0FAFB0023BB808B
:100530004FF4E0633B8102237B810123BB814FF4B5
:100540000073FB8110233B8200237B820723BB8245
:100550004FF48273FB803B1D1946084801F006FCEE
:100560000121064801F08DFC4FF48051034801F051
:10057000A8FC00BF1837BD4680BD00BF0030014059
:1005800080B582B000AF0346FB7100BF02210D4869
:1005900001F0DDFC0346002BF8D0FB791946094831
:1005A00001F0ABFC00BF0121064801F0D0FC03467E
:1005B000002BF8D0034801F0B6FC03461846083774
:1005C000BD4680BD0030014080B582B000AF03461B
:1005D0000A46FB711346BB7108210948FFF7D2FE9A
:1005E000FB791846FFF7CCFFBB791846FFF7C8FF29
:1005F00008210348FFF7B7FE00BF0837BD4680BD9E
:100600000010004800000000B0B584B000AF082121
:100610004748FFF7B7FEE820FFF7B2FF0020FFF7DB
:10062000AFFF03463B720020FFF7AAFF03467B7231
:1006300008213F48FFF797FE3B7A1AB27B7A1B02EC
:100640001BB213431BB29BB20A3BFB81B7F90E30BE
:10065000002B02DB00237B730DE001237B73FB89FE
:10066000C3F30E03FB81FB89C3F17F4303F57F03D3
:1006700003F50043FB81FB891F2B01D80023FB817D
:100680007B7B002B20D1FB89184602F071FF24A34D
:10069000D3E9002302F0D6FF03460C461846214654
:1006A00021A3D3E9002302F0CDFF03460C461846F0
:1006B0002146D7E900341A46234602F00DFE0346D0
:1006C0000C46C7E900341DE0D7E90045FB89184610
:1006D00002F04EFF12A3D3E9002302F0B3FF02465B
:1006E0000B461046194610A3D3E9002302F0AAFFD7
:1006F00002460B462046294602F0ECFD03460C4616
:10070000C7E900340B4B186839460023002202F079
:10071000DBF8142000F0A6FD79E700BFAFF30080FE
:10072000EC51B81E85EBB13F9A9999999999993FE7
:1007300000100048783D002080B582B000AF6E4BBD
:100740001B6839460022184602F05EFA00216B4809
:10075000FFF727FED7E9000163A3D3E9002303F0E5
:1007600001FA0346002B0ED0D7E900014FF000023A
:10077000634B03F0D9F90346002B04D04FF480718A
:100780005E48FFF7F0FDD7E900014FF000025C4B37
:1007900003F0E8F90346002B0ED0D7E900014FF033
:1007A0000002584B03F0C0F90346002B04D04FF46D
:1007B00000715248FFF7D7FDD7E900014FF0000262
:1007C000504B03F0CFF90346002B0ED0D7E90001C0
:1007D0004FF000024C4B03F0A7F90346002B04D066
:1007E0004FF480614548FFF7BEFDD7E900014FF0A7
:1007F0000002454B03F0B6F90346002B0ED0D7E9B3
:1008000000014FF00002414B03F08EF90346002B2C
:1008100004D04FF400613948FFF7A5FDD7E9000186
:100820004FF00002394B03F09DF90346002B0ED028
:10083000D7E900014FF00002354B03F075F903468C
:10084000002B04D04FF480512C48FFF78CFDD7E9E2
:1008500000014FF000022E4B03F084F90346002BF9
:100860000ED0D7E9000122A3D3E9002303F05CF9FD
:100870000346002B04D04FF400512048FFF773FDCE
:10088000D7E900011AA3D3E9002303F06BF903466B
:10089000002B0ED0D7E900014FF000021D4B03F0F2
:1008A00043F90346002B04D04FF480411348FFF76F
:1008B0005AFDD7E900014FF00002164B03F052F940
:1008C0000346002B09D1D7E9000107A3D3E9002390
:1008D00003F02AF90346002B04D04FF400410748E7
:1008E000FFF741FD2BE700BF0000000000405AC0A9
:1008F0000000000000C05240783D00200010004879
:1009000000C052C0008046C000002EC000002E4033
:100910000080464000405A4080B582B002AFFFF7E9
:1009200099FDFFF7F7FD0A212020FFF74DFE30214A
:100930002320FFF749FE00220821012001F052FF89
:1009400002460E4B1A6000230193022300930023FA
:100950004FF480720A490B4800F040FB00230193DA
:100960000223009300234FF480720749074800F0E8
:1009700035FB00F0ABFC00BFFDE700BF783D002079
:10098000403D000809060008483D000839070008F6
:1009900080B400AF00BFBD465DF8047B704780B4F3
:1009A00000AFFEE780B483B000AF78603960FEE747
:1009B00080B400AF00BFBD465DF8047B7047000007
:1009C00080B584B002AF00237B6000F0D1FA114BF8
:1009D0001B68002B0BD0104B0193022300930023C4
:1009E0004FF400720D490E4800F0F8FA78607B6809
:1009F000002B09D14FF0500383F31188BFF36F8FA1
:100A0000BFF34F8F3B60FEE77B6818460837BD4653
:100A100080BD00BF4C000020500000204C3D00086D
:100A2000550B000880B58AB000AFF860B9607A60F5
:100A30003B6000237B62FB68002B09D14FF0500321
:100A400083F31188BFF36F8FBFF34F8F3B62FEE7D5
:100A5000194B1B68002B2AD0BB687B617B68BB618C
:100A6000FB68FB61BB68052B18DC01F05DF80346F1
:100A7000022B09D1104B186807F1140100233A6BBF
:100A800001F022FF786212E00B4B186807F11401A5
:100A90000023002201F018FF786208E0064B186876
:100AA00007F1140100233A6802F008F878627B6AC3
:100AB00018462837BD4680BD4C00002080B588B060
:100AC00002AF78603960224B1B68DB68DB687B61B2
:100AD0007B690433184601F09DFB7B6993F828304D
:100AE00003F00403002B21D07B699A697B68D1183D
:100AF0007B683A68786900F0D1F80346002B1ED075
:100B00000023009300237A6800217869FFF78AFFA9
:100B100038613B69002B12D14FF0500383F31188E9
:100B2000BFF36F8FBFF34F8FFB60FEE77B6993F8D6
:100B3000283023F00103DAB27B6983F828207B692F
:100B40001B6A7869984700BF1837BD4680BD00BF53
:100B50004400002080B584B000AF786007F108033E
:100B6000184600F057F8F860BB681946F86800F0BE
:100B700003F800F0D5F8F1E780B584B000AF7860F5
:100B8000396000F0EFFB07F10803184600F066F843
:100B9000F860BB68002B30D13B68002B0AD17A6823
:100BA000FB689A4206D800F0EBFBF9687868FFF71B
:100BB00085FF24E03B68002B08D0134B1B681B68A3
:100BC000002B01D1012300E000233B600F4B18688C
:100BD0007A68FB68D31A3A68194602F029FA00F0DD
:100BE000CFFB0346002B0AD1094B4FF080521A600D
:100BF000BFF34F8FBFF36F8F01E000F0C1FB00BF69
:100C00001037BD4680BD00BF480000204C000020CA
:100C100004ED00E080B485B000AF78600E4B1B6837
:100C20001B68002B01D1012200E000227B681A60C2
:100C30007B681B68002B05D1074B1B68DB681B68B2
:100C4000FB6001E00023FB60FB6818461437BD46DB
:100C50005DF8047B704700BF4400002080B584B07D
:100C600000AF786000F028FCF8600B4B1B68FA6856
:100C70009A4205D200F018F97B6801221A6002E05E
:100C80007B6800221A60044AFB681360FB68184600
:100C90001037BD4680BD00BF5400002080B586B02F
:100CA00000AFF860B9607A603B6000237B61FB684D
:100CB000BA685A60FB68FA681A61BA687B689A4237
:100CC00012D87A683B68D21AFB689B699A4202D3B1
:100CD00001237B611BE0104B1A68FB680433194643
:100CE000104601F05EFA12E07A683B689A4206D23A
:100CF000BA683B689A4202D301237B6107E0074B45
:100D00001A68FB6804331946104601F04AFA7B69F9
:100D100018461837BD4680BD48000020440000201A
:100D200080B58CB002AFACE0BB68002BC0F2A880ED
:100D30003B697B627B6A5B69002B04D07B6A04336E
:100D4000184601F067FA3B1D1846FFF787FF386227
:100D5000BB68092B00F2958001A252F823F000BF76
:100D6000890D0008890D0008890D0008FB0D000899
:100D70000F0E0008570E0008890D0008890D0008A5
:100D8000FB0D00080F0E00087B6A93F8283043F033
:100D90000103DAB27B6A83F82820FA687B6A9B69D0
:100DA000D118FB683A6A786AFFF778FF0346002B90
:100DB00067D07B6A1B6A786A98477B6A93F8283009
:100DC00003F00403002B5CD0FA687B6A9B691A4429
:100DD0000023009300230021786AFFF723FEF861C7
:100DE000FB69002B4DD14FF0500383F31188BFF303
:100DF0006F8FBFF34F8FBB61FEE77B6A93F828309C
:100E000023F00103DAB27B6A83F8282039E07B6A99
:100E100093F8283043F00103DAB27B6A83F8282084
:100E2000FA687B6A9A617B6A9B69002B09D14FF053
:100E3000500383F31188BFF36F8FBFF34F8F7B6134
:100E4000FEE77B6A9A693B6AD1183B6A3A6A786A1C
:100E5000FFF724FF15E07B6A93F8283003F00203C4
:100E6000002B03D1786A02F0CDF90AE07B6A93F88F
:100E7000283023F00103DAB27B6A83F8282000E0EF
:100E800000BF084B1B6807F108010022184601F05B
:100E9000BBFE0346002B7FF447AF00BF2837BD469B
:100EA00080BD00BF4C00002080B588B002AF47E095
:100EB0002D4B1B68DB681B683B612B4B1B68DB6899
:100EC000DB68FB60FB680433184601F0A3F9FB689C
:100ED0001B6AF8689847FB6893F8283003F004030E
:100EE000002B2DD0FB689B693A691344BB60BA683C
:100EF0003B699A420ED9FB68BA685A60FB68FA6887
:100F00001A61194B1A68FB6804331946104601F040
:100F100048F915E00023009300233A690021F8689E
:100F2000FFF780FD78607B68002B09D14FF05003FC
:100F300083F31188BFF36F8FBFF34F8F3B60FEE7E2
:100F4000094B1B681B68002BB2D1074B1B687B61E8
:100F5000064B1B68044A1360044A7B69136000BF98
:100F60001837BD4680BD00BF440000204800002067
:100F700080B500AF01F0B4FA124B1B68002B1DD1F5
:100F8000114801F0BDF8114801F0BAF8104B0E4AB3
:100F90001A60104B0D4A1A6000220C210A2001F041
:100FA00021FC0246074B1A60064B1B68002B05D03C
:100FB000044B1B680849184602F012F801F0BEFA0B
:100FC00000BF80BD4C0000201C000020300000202D
:100FD0004400002048000020543D000880B58CB03B
:100FE00004AFF860B9603B601346FB80FB889B0050
:100FF000184602F075F878617B69002B0ED05820F6
:1010000002F06EF8F861FB69002B03D0FB697A6986
:101010001A6305E0786902F0F5F801E00023FB614E
:10102000FB69002B13D0FA8800230393FB6902931A
:10103000FB6A0193BB6A00933B68B968F86800F0EB
:101040000EF8F86900F0A0F80123BB6102E04FF050
:10105000FF33BB61BB6918462037BD4680BD80B5F4
:1010600088B000AFF860B9607A603B603B6B186B8A
:101070007B689B001A46A52102F018FE3B6B1A6B99
:101080007B6803F18043013B9B001344BB61BB6958
:1010900023F00703BB61BB6903F00703002B09D0F2
:1010A0004FF0500383F31188BFF36F8FBFF34F8F5F
:1010B0007B61FEE7BB68002B1FD00023FB6112E0C1
:1010C000BA68FB69134419783A6BFB6913443433EB
:1010D0000A461A70BA68FB6913441B78002B06D0C5
:1010E000FB690133FB61FB69092BE9D900E000BF13
:1010F0003B6B002283F83D2003E03B6B002283F82A
:101100003420BB6A042B01D90423BB623B6BBA6A4F
:10111000DA623B6BBA6A9A643B6B0022DA643B6B1F
:101120000433184601F00CF83B6B1833184601F0F5
:1011300007F83B6B3A6B1A61BB6AC3F105023B6B64
:101140009A613B6B3A6B5A623B6B5033042200212D
:10115000184602F0ABFD3B6B5433012200211846C8
:1011600002F0A4FD3A68F968B86901F07DF802461A
:101170003B6B1A60FB6A002B02D0FB6A3A6B1A6069
:1011800000BF2037BD4680BD80B582B000AF78601B
:1011900001F0A6F92C4B1B6801332B4A13602B4B33
:1011A0001B68002B09D1294A7B681360264B1B68FA
:1011B000012B10D100F020FC0DE0254B1B68002B0B
:1011C00009D1224B1B68DA6A7B68DB6A9A4202D833
:1011D0001E4A7B6813601F4B1B6801331D4A136056
:1011E0001C4B1A687B681A647B68DB6A01229A4090
:1011F000194B1B681343184A13607B68DA6A13465D
:101200009B0013449B00154A1A447B68043319461B
:10121000104600F0A2FF01F091F90D4B1B68002B66
:101220000ED00A4B1B68DA6A7B68DB6A9A4207D2E7
:101230000B4B4FF080521A60BFF34F8FBFF36F8F8D
:1012400000BF0837BD4680BD300100205800002097
:101250003C0100204C010020380100205C000020EF
:1012600004ED00E080B584B000AF78600023FB603F
:101270007B68002B16D0134B1B68002B09D04FF056
:10128000500383F31188BFF36F8FBFF34F8FBB60A1
:10129000FEE700F067F80021786800F0DBFC00F062
:1012A0006FF8F860FB68002B07D1074B4FF08052B6
:1012B0001A60BFF34F8FBFF36F8F00BF1037BD466B
:1012C00080BD00BF5801002004ED00E080B586B06D
:1012D00002AF1E4B01930023009300234FF4807252
:1012E0001B491C48FFF77AFEF860FB68012B02D10E
:1012F000FFF766FBF860FB68012B15D14FF0500338
:1013000083F31188BFF36F8FBFF34F8FBB60124B16
:101310004FF0FF321A60114B01221A60104B00226D
:101320001A6001F02FF80DE0FB68B3F1FF3F09D11F
:101330004FF0500383F31188BFF36F8FBFF34F8FCC
:101340007B60FEE700BF1037BD4680BD5401002022
:101350005C3D0008C5190008500100203C01002038
:101360003401002080B400AF044B1B680133034AF2
:10137000136000BFBD465DF8047B70475801002034
:1013800080B584B000AF0023FB600023BB60414BFD
:101390001B68002B09D14FF0500383F31188BFF372
:1013A0006F8FBFF34F8F3B60FEE701F099F8394B29
:1013B0001B68013B374A1360364B1B68002B61D119
:1013C000354B1B68002B5DD02EE0344BDB68DB68AF
:1013D000FB60FB681833184600F01CFFFB68043301
:1013E000184600F017FFFB68DB6A01229A402C4B7D
:1013F0001B6813432A4A1360FB68DA6A13469B0092
:1014000013449B00274A1A44FB68043319461046CC
:1014100000F0A3FEFB68DA6A234B1B68DB6A9A4282
:1014200002D3224B01221A601C4B1B68002BCCD12B
:10143000FB68002B01D000F05BFB1D4B1B687B6041
:101440007B68002B10D000F047F80346002B02D039
:10145000164B01221A607B68013B7B607B68002B86
:10146000F1D1134B00221A60104B1B68002B09D0DE
:101470000123BB600F4B4FF080521A60BFF34F8FB8
:10148000BFF36F8F01F05AF8BB6818461037BD469E
:1014900080BD00BF5801002030010020F000002076
:1014A000380100205C00002058000020440100208A
:1014B0004001002004ED00E080B483B000AF054B94
:1014C0001B687B607B6818460C37BD465DF8047B63
:1014D000704700BF3401002080B586B000AF002304
:1014E0007B61524B1B68002B40F09380504B1B6874
:1014F00001333B614E4A3B6913603B69002B1FD1AE
:101500004C4B1B681B68002B09D04FF0500383F332
:101510001188BFF36F8FBFF34F8F3B60FEE7454BE2
:101520001B68FB60444B1B68424A1360424AFB68DD
:101530001360424B1B680133404A136000F0D8FA35
:101540003F4B1B683A699A4248D33A4B1B681B6869
:10155000002B04D13A4B4FF0FF321A603EE0354B7E
:101560001B68DB68DB68BB60BB685B687B603A69F3
:101570007B689A4203D2324A7B6813602EE0BB68D4
:101580000433184600F046FEBB689B6A002B04D06B
:10159000BB681833184600F03DFEBB68DB6A0122C9
:1015A0009A40284B1B681343264A1360BB68DA6ACB
:1015B00013469B0013449B00234A1A44BB68043320
:1015C0001946104600F0C9FDBB68DA6A1F4B1B685C
:1015D000DB6A9A42B9D301237B61B6E71B4B1B68D8
:1015E000DA6A194913469B0013449B000B441B689D
:1015F000012B01D901237B61154B1B68002B01D105
:10160000FFF7D6F9134B1B68002B09D001237B6130
:1016100006E00F4B1B6801330D4A1360FFF7C8F952
:101620007B6918461837BD4680BD00BF58010020B1
:1016300034010020E8000020EC00002048010020D8
:1016400050010020380100205C00002058000020DC
:10165000400100204401002080B588B000AF394B24
:101660001B68002B03D0384B01221A6065E0364B13
:1016700000221A60354B1B681B6BFB614FF0A533D2
:10168000BB61FB691B68BA699A4211D1FB690433DB
:101690001B68BA699A420BD1FB6908331B68BA69A7
:1016A0009A4205D1FB690C331B68BA699A4208D08B
:1016B000264B1A68254B1B68343319461046FFF732
:1016C00071F9234B1B68FB60FB68B3FA83F3FB7271
:1016D000FB7AC3F11F037B611E497A6913469B00A5
:1016E00013449B000B441B68002B09D14FF050039F
:1016F00083F31188BFF36F8FBFF34F8F7B60FEE7DB
:101700007A6913469B0013449B00124A13443B61C1
:101710003B695B685A683B695A603B695A683B6938
:1017200008339A4204D13B695B685A683B695A6046
:101730003B695B68DB68054A136000BF2037BD4624
:1017400080BD00BF58010020440100205800002047
:10175000380100205C00002080B584B000AF7860C4
:1017600039607B68002B09D14FF0500383F3118857
:10177000BFF36F8FBFF34F8FFB60FEE7074B1B6814
:1017800018331946786800F00CFD0121386800F024
:1017900061FA00BF1037BD4680BD00BF5800002071
:1017A00080B586B000AFF860B9607A60FB68002B46
:1017B00009D14FF0500383F31188BFF36F8FBFF34C
:1017C0004F8F7B61FEE70A4B1B6818331946F86898
:1017D00000F0C3FC7B68002B02D04FF0FF33BB60EE
:1017E0007968B86800F036FA00BF1837BD4680BD8A
:1017F0005800002080B586B000AF78607B68DB6859
:10180000DB683B613B69002B09D14FF0500383F348
:101810001188BFF36F8FBFF34F8FFB60FEE73B690B
:101820001833184600F0F6FC1D4B1B68002B1CD12A
:101830003B690433184600F0EDFC3B69DB6A01228A
:101840009A40184B1B681343164A13603B69DA6AC7
:1018500013469B0013449B00134A1A443B6904330C
:101860001946104600F079FC05E03B69183319462B
:101870000E4800F072FC3B69DA6A0D4B1B68DB6AAC
:101880009A4205D901237B610A4B01221A6001E0CB
:1018900000237B617B6918461837BD4680BD00BFB9
:1018A00058010020380100205C000020F0000020DA
:1018B000580000204401002080B483B000AF78605D
:1018C000064B1A687B681A60054B1A687B685A6079
:1018D00000BF0C37BD465DF8047B7047480100200F
:1018E0003401002080B588B000AF786039607B6833
:1018F000002B09D14FF0500383F31188BFF36F8F92
:10190000BFF34F8F3B61FEE73B68002B09D14FF0DF
:10191000500383F31188BFF36F8FBFF34F8FFB60CA
:10192000FEE700F0DDFD1F4B1B68BB617B685B6859
:10193000BA69D31A7B613B681B68B3F1FF3F02D1E0
:101940000023FB6126E07B681A68174B1B689A42EC
:101950000AD07B685B68BA699A4205D30123FB61B0
:101960003B6800221A6015E03B681B687A699A425E
:101970000BD23B681A687B69D21A3B681A60786898
:10198000FFF79AFF0023FB6104E03B6800221A6026
:101990000123FB6100F0D2FDFB6918462037BD46EC
:1019A00080BD00BF340100204801002080B400AF9A
:1019B000034B01221A6000BFBD465DF8047B7047EF
:1019C0004401002080B582B000AF786000F054F888
:1019D000074B1B68012B07D9064B4FF080521A604A
:1019E000BFF34F8FBFF36F8FFEF7D2FFEEE700BF5D
:1019F0005C00002004ED00E080B582B000AF002361
:101A00007B600CE07A6813469B0013449B00124AEB
:101A10001344184600F074FB7B6801337B607B68DD
:101A2000042BEFD90D4800F06BFB0D4800F068FB6C
:101A30000C4800F065FB0C4800F062FB0B4800F01E
:101A40005FFB0B4B054A1A600A4B054A1A6000BF40
:101A50000837BD4680BD00BF5C000020C0000020EC
:101A6000D4000020F0000020040100201C01002010
:101A7000E8000020EC00002080B582B000AF19E043
:101A800000F02EFD0F4BDB68DB687B607B68043366
:101A9000184600F0BFFB0C4B1B68013B0A4A136061
:101AA0000A4B1B68013B094A136000F047FD786848
:101AB00000F00EF8054B1B68002BE1D100BF083782
:101AC000BD4680BD04010020300100201801002027
:101AD00080B582B000AF78607B681B6B184601F060
:101AE00091FB786801F08EFB00BF0837BD4680BDD2
:101AF00080B400AF0A4B1B681B68002B04D1094B54
:101B00004FF0FF321A6005E0054B1B68DB681B686D
:101B1000044A136000BFBD465DF8047B704700BFF8
:101B2000E80000205001002080B483B000AF0B4BD0
:101B30001B68002B02D101237B6008E0084B1B6867
:101B4000002B02D102237B6001E000237B607B68D5
:101B500018460C37BD465DF8047B70473C010020F9
:101B60005801002080B586B000AF78607B683B618B
:101B700000237B617B68002B61D0334B1B683A6983
:101B80009A4209D04FF0500383F31188BFF36F8F4F
:101B9000BFF34F8FFB60FEE73B69DB6C002B09D185
:101BA0004FF0500383F31188BFF36F8FBFF34F8F54
:101BB000BB60FEE73B69DB6C5A1E3B69DA643B693C
:101BC000DA6A3B699B6C9A4239D03B69DB6C002B2B
:101BD00035D13B690433184600F01CFB0346002B4B
:101BE0000AD13B69DB6A012202FA03F3DA43174B9D
:101BF0001B681340154A13603B699A6C3B69DA62B3
:101C00003B69DB6AC3F105023B699A613B69DB6AA8
:101C100001229A400D4B1B6813430C4A13603B6929
:101C2000DA6A13469B0013449B00094A1A443B6935
:101C300004331946104600F090FA01237B617B695A
:101C400018461837BD4680BD5800002038010020D6
:101C50005C00002080B584B000AF78603960294B0B
:101C60001B68FB60284B1B680433184600F0D2FA4F
:101C70000346002B0BD1244B1B68DB6A012202FABE
:101C800003F3DA43214B1B681340204A13607B683F
:101C9000B3F1FF3F0AD13B68002B07D01A4B1B68FA
:101CA000043319461A4800F058FA26E0FA687B68AF
:101CB0001344BB60144B1B68BA685A60BA68FB686F
:101CC0009A4209D2134B1A680F4B1B68043319460A
:101CD000104600F066FA10E00F4B1A680A4B1B68BA
:101CE00004331946104600F05CFA0C4B1B68BA68C6
:101CF0009A4202D2094ABB68136000BF1037BD4642
:101D000080BD00BF340100205800002038010020B1
:101D10001C010020EC000020E80000205001002001
:101D200080B483B000AF78607B6800221A807B6843
:101D300000225A807B684FF4E0629A807B68002220
:101D4000DA807B6800221A817B6800225A817B68D6
:101D500000229A817B680022DA817B6807221A823E
:101D600000BF0C37BD465DF8047B704780B485B07A
:101D700000AF786039600023FB813B685B88B3F576
:101D8000827F36D17B681B88FB81FB8903F441533A
:101D9000FB813B681A883B685B8813439AB23B68B7
:101DA000D9883B681B890B4399B23B6858893B68CB
:101DB0009B89034398B23B68DB8903439BB20B4387
:101DC0009BB213439AB2FB891343FB817B68FA8968
:101DD0001A807B689B88FB81FB8923F47063FB81FD
:101DE0003B689A88FB891343FB817B68FA899A8058
:101DF00035E07B689B88FB81FB8923F47063FB8162
:101E00003B689A88FB891343FB817B68FA899A8037
:101E10007B681B88FB81FB8903F44153FB813B6892
:101E20001A883B685B8813439AB23B68D9883B6841
:101E30001B890B4399B23B6858893B689B890343D4
:101E400098B23B68DB8903439BB20B439BB21343BD
:101E50009AB2FB891343FB817B68FA891A807B68FD
:101E60009B8B9BB223F400639AB27B689A833B6896
:101E70001A8A7B681A8200BF1437BD465DF8047B5E
:101E8000704780B483B000AF78600B46FB70FB787E
:101E9000002B08D07B681B889BB243F040039AB2AA
:101EA0007B681A8007E07B681B889BB223F04003A5
:101EB0009AB27B681A8000BF0C37BD465DF8047B80
:101EC000704780B483B000AF78600B467B807B683E
:101ED0009B889BB223F480539AB27B689A807B687C
:101EE0009B889AB27B8813439AB27B689A8000BF22
:101EF0000C37BD465DF8047B704780B485B000AFF9
:101F000078600B46FB700023FB607B68FB60FB681E
:101F10000C33FB60FB68FA781A7000BF1437BD46BB
:101F20005DF8047B704780B485B000AF7860002313
:101F3000FB607B68FB60FB680C33FB60FB681B7815
:101F4000DBB218461437BD465DF8047B704780B499
:101F500085B000AF78600B467B800023FB737B6805
:101F60001B899AB27B8813409BB2002B02D00123BD
:101F7000FB7301E00023FB73FB7B18461437BD465F
:101F80005DF8047B7047000080B500AF1F4BD3F8AD
:101F900088301E4A43F47003C2F888301C4B1B681B
:101FA0001B4A43F001031360194B5A681849194B37
:101FB00013404B60164B1B68154A23F0847323F4BF
:101FC00080331360124B1B68114A23F48023136083
:101FD0000F4B5B680E4A23F4FE0353600C4BDB6A25
:101FE0000B4A23F00F03D362094B1A6B08490A4BC3
:101FF00013400B63064B00229A6000F00FF8034B6E
:102000004FF000629A6000BF80BD00BF00ED00E0AD
:10201000001002400CC07FF8CCFC00FF80B483B0FD
:1020200000AF00237B6000233B60334B1B68324AC8
:1020300043F480331360304B1B6803F400333B6080
:102040007B6801337B603B68002B03D17B68B3F571
:10205000A06FF0D1284B1B6803F40033002B02D093
:1020600001233B6001E000233B603B68012B3CD136
:10207000224B12221A60204B1F4A5B6853601E4B92
:102080001D4A5B6853601C4B5B681B4A43F48063CA
:102090005360194B5B68184A23F47C135360164B4A
:1020A0005B68154A43F4E8135360134B1B68124AEC
:1020B00043F08073136000BF0F4B1B6803F0007385
:1020C000002BF9D00C4B5B680B4A23F003035360E1
:1020D000094B5B68084A43F00203536000BF064B9C
:1020E0005B6803F00C03082BF9D100BF0C37BD4629
:1020F0005DF8047B704700BF0010024000200240E2
:1021000080B483B000AF78607B6803F108027B681D
:102110005A607B684FF0FF329A607B6803F10802D7
:102120007B68DA607B6803F108027B681A617B6870
:1021300000221A6000BF0C37BD465DF8047B704773
:1021400080B483B000AF78607B6800221A6100BF62
:102150000C37BD465DF8047B704780B485B000AF96
:10216000786039607B685B68FB603B68FA685A603E
:10217000FB689A683B689A60FB689B683A685A609B
:10218000FB683A689A603B687A681A617B681B68EA
:102190005A1C7B681A6000BF1437BD465DF8047B8B
:1021A000704780B485B000AF786039603B681B68C9
:1021B000BB60BB68B3F1FF3F03D17B681B69FB6069
:1021C0000CE07B680833FB6002E0FB685B68FB6047
:1021D000FB685B681B68BA689A42F6D2FB685A686B
:1021E0003B685A603B685B683A689A603B68FA688B
:1021F0009A60FB683A685A603B687A681A617B6843
:102200001B685A1C7B681A6000BF1437BD465DF816
:10221000047B704780B485B000AF78607B681B6931
:10222000FB607B685B687A6892689A607B689B68F1
:102230007A6852685A60FB685B687A689A4203D190
:102240007B689A68FB685A607B6800221A61FB68A9
:102250001B685A1EFB681A60FB681B681846143717
:10226000BD465DF8047B704780B485B000AFF86070
:10227000B9607A60FB68043BFB60FB684FF08072DA
:102280001A60FB68043BFB60BB6823F00102FB683B
:102290001A60FB68043BFB600C4AFB681A60FB6831
:1022A000143BFB607A68FB681A60FB68043BFB60C8
:1022B000FB686FF002021A60FB68203BFB60FB6862
:1022C00018461437BD465DF8047B7047D1220008DC
:1022D00080B485B000AF00237B60114B1B68B3F165
:1022E000FF3F09D04FF0500383F31188BFF36F8F86
:1022F000BFF34F8FFB60FEE74FF0500383F311886D
:10230000BFF36F8FBFF34F8FBB6000BF7B68002BA5
:10231000FCD000BF1437BD465DF8047B704700BF9A
:102320001400002000000000000000000000000079
:10233000074B19680868B0E8F04F80F30988BFF3CD
:102340006F8F4FF0000080F311887047AFF300806B
:102350005800002000BF00BF08480068006880F3F4
:1023600008884FF0000080F3148862B661B6BFF3AE
:102370004F8FBFF36F8F00DF00BF000008ED00E05C
:1023800000BF00BF80B588B000AF4C4B1B684C4A03
:10239000934209D14FF0500383F31188BFF36F8F3D
:1023A000BFF34F8FBB61FEE7444B1B68454A934226
:1023B00009D14FF0500383F31188BFF36F8FBFF340
:1023C0004F8F7B61FEE7404BFB61FB691B78DBB203
:1023D000BB60FB69FF221A70FB691B78DBB2FB71E3
:1023E000FB79DBB203F05003DAB2384B1A70384B8A
:1023F00007221A6009E0364B1B68013B344A136020
:10240000FB79DBB25B00DBB2FB71FB79DBB203F083
:102410008003802BEFD02E4B1B68C3F10703042BE6
:1024200009D04FF0500383F31188BFF36F8FBFF3D0
:102430004F8F3B61FEE7264B1B68C3F10703042B5C
:1024400009D04FF0500383F31188BFF36F8FBFF3B0
:102450004F8FFB60FEE71E4B1B681B021C4A13607C
:102460001B4B1B6803F4E063194A1360BB68DAB2C4
:10247000FB691A70174B1B68164A43F4700313600C
:10248000144B1B68134A43F07043136000F0D4F8F8
:10249000114B00221A6000F0F3F8104B1B680F4A32
:1024A00043F040431360FFF757FFFFF7D5F8FFF7FE
:1024B0000FFF002318462037BD4680BD00ED00E029
:1024C00071C20F4170C20F4100E400E05C010020C6
:1024D0006001002020ED00E01400002034EF00E057
:1024E00080B483B000AF4FF0500383F31188BFF383
:1024F0006F8FBFF34F8F7B600E4B1B6801330D4A0C
:1025000013600C4B1B68012B0ED10B4B1B68DBB20D
:10251000002B09D04FF0500383F31188BFF36F8F66
:10252000BFF34F8F3B60FEE700BF0C37BD465DF841
:10253000047B70471400002004ED00E080B483B0F9
:1025400000AF114B1B68002B09D14FF0500383F3F0
:102550001188BFF36F8FBFF34F8F7B60FEE70A4B8D
:102560001B68013B084A1360074B1B68002B04D112
:1025700000233B603B6883F3118800BF0C37BD46E6
:102580005DF8047B704700BF1400002000000000CD
:10259000EFF30980BFF36F8F154B1A681EF0100F11
:1025A00008BF20ED108A20E9F04F10602DE90900E6
:1025B0004FF0500080F31188BFF34F8FBFF36F8F40
:1025C000FFF74AF84FF0000080F3118809BC196842
:1025D0000868B0E8F04F1EF0100F08BFB0EC108A8A
:1025E00080F30988BFF36F8F704700BFAFF300809F
:1025F0005800002000BF00BF80B582B000AF4FF090
:10260000500383F31188BFF36F8FBFF34F8F7B604D
:10261000FEF762FF0346002B03D0064B4FF08052BB
:102620001A6000233B603B6883F3118800BF0837C2
:10263000BD4680BD04ED00E080B400AF0B4B00222E
:102640001A600B4B00221A600A4B1B680A4AA2FB55
:1026500003239B09094A013B1360044B07221A60BC
:1026600000BFBD465DF8047B704700BF10E000E08E
:1026700018E000E000000020D34D621014E000E0FC
:10268000DFF80C00016841F4700101607047000040
:1026900088ED00E000BF00BF80B485B000AFEFF36D
:1026A0000583FB60FB680F2B13D9164AFB681344A4
:1026B0001B78FB72144B1B78FA7A9A4209D24FF0BE
:1026C000500383F31188BFF36F8FBFF34F8F7B608D
:1026D000FEE70E4B1B6803F4E0620D4B1B689A4249
:1026E00009D94FF0500383F31188BFF36F8FBFF305
:1026F0004F8F3B60FEE700BF1437BD465DF8047B9B
:10270000704700BFF0E300E05C0100200CED00E04A
:102710006001002080B584B000AF786039607B68CC
:10272000FB60FB68002B09D14FF0500383F3118845
:10273000BFF36F8FBFF34F8FBB60FEE7FFF7D0FE95
:10274000FB681A68FB68DB6BF968096C01FB03F333
:102750001A44FB689A60FB6800229A63FB681A6857
:10276000FB685A60FB681A68FB68DB6B013BF96821
:10277000096C01FB03F31A44FB68DA60FB68FF2273
:1027800083F84420FB68FF2283F845203B68002B38
:1027900014D1FB681B69002B1AD0FB681033184654
:1027A000FFF728F80346002B12D00D4B4FF0805254
:1027B0001A60BFF34F8FBFF36F8F09E0FB681033D0
:1027C0001846FFF79DFCFB6824331846FFF798FC7A
:1027D000FFF7B4FE012318461037BD4680BD00BF89
:1027E00004ED00E080B58CB002AFF860B96013462C
:1027F000FB71FB68002B09D14FF0500383F3118864
:10280000BFF36F8FBFF34F8FBB61FEE7FB68BA6802
:1028100002FB03F37B62BB68002B06D07A6ABB68BD
:10282000B2FBF3F3FA689A4201D1012300E00023DE
:10283000002B09D14FF0500383F31188BFF36F8F42
:10284000BFF34F8F7B61FEE77B6A5033184600F081
:1028500047FC38623B6A002B0DD03B6AFB61FB6989
:102860005033FB61FA793B6A00931346FA69B96801
:10287000F86800F005F83B6A18462837BD4680BD69
:1028800080B584B000AFF860B9607A60FB70BB6857
:10289000002B03D1BB69BA691A6002E0BB697A6890
:1028A0001A60BB69FA68DA63BB69BA681A64012105
:1028B000B869FFF72FFFBB69FA7883F84C2000BF97
:1028C0001037BD4680BD000080B58EB000AFF86007
:1028D000B9607A603B6000237B63FB683B633B6BC2
:1028E000002B09D14FF0500383F31188BFF36F8F92
:1028F000BFF34F8FBB62FEE7BB68002B03D13B6B7E
:102900001B6C002B01D1012300E00023002B09D117
:102910004FF0500383F31188BFF36F8FBFF34F8FD6
:102920007B62FEE73B68022B03D13B6BDB6B012B29
:1029300001D1012300E00023002B09D14FF0500307
:1029400083F31188BFF36F8FBFF34F8F3B62FEE7B6
:10295000FFF7EAF80346002B02D17B68002B01D178
:10296000012300E00023002B09D14FF0500383F333
:102970001188BFF36F8FBFF34F8FFB61FEE7FFF747
:10298000AFFD3B6B9A6B3B6BDB6B9A4202D33B68B0
:10299000022B29D13A68B968386B00F011FAF86255
:1029A0003B6B5B6A002B10D03B6B24331846FEF761
:1029B00021FF0346002B13D03F4B4FF080521A608B
:1029C000BFF34F8FBFF36F8F0AE0FB6A002B07D076
:1029D000394B4FF080521A60BFF34F8FBFF36F8FA8
:1029E000FFF7ACFD012363E07B68002B03D1FFF709
:1029F000A5FD00235CE07B6B002B06D107F11403DF
:102A00001846FEF759FF01237B63FFF797FDFEF79A
:102A1000A9FCFFF765FD3B6B93F844305BB2B3F163
:102A2000FF3F03D13B6B002283F844203B6B93F8BC
:102A300045305BB2B3F1FF3F03D13B6B002283F81B
:102A40004520FFF77BFD3A1D07F114031146184698
:102A5000FEF748FF0346002B24D1386B00F0A8FA9C
:102A60000346002B18D03B6B10337A68114618468A
:102A7000FEF772FE386B00F033FAFEF781FC034676
:102A8000002B7FF47CAF0C4B4FF080521A60BFF3E9
:102A90004F8FBFF36F8F72E7386B00F021FAFEF7AC
:102AA0006FFC6CE7386B00F01BFAFEF769FC002343
:102AB00018463837BD4680BD04ED00E080B590B0C3
:102AC00000AFF860B9607A603B60FB68BB63BB6BCA
:102AD000002B09D14FF0500383F31188BFF36F8FA0
:102AE000BFF34F8FBB62FEE7BB68002B03D1BB6B0C
:102AF0001B6C002B01D1012300E00023002B09D126
:102B00004FF0500383F31188BFF36F8FBFF34F8FE4
:102B10007B62FEE73B68022B03D1BB6BDB6B012BB7
:102B200001D1012300E00023002B09D14FF0500315
:102B300083F31188BFF36F8FBFF34F8F3B62FEE7C4
:102B4000FFF7AAFDEFF311824FF0500383F31188D2
:102B5000BFF36F8FBFF34F8FFA61BB61FB697B637C
:102B6000BB6B9A6BBB6BDB6B9A4202D33B68022B4D
:102B70003DD1BB6B93F8453087F83330BB6B9B6B13
:102B8000FB623A68B968B86B00F01AF997F933300C
:102B9000B3F1FF3F12D1BB6B5B6A002B24D0BB6B40
:102BA00024331846FEF726FE0346002B1CD07B6814
:102BB000002B19D07B6801221A6015E097F9333099
:102BC0007F2B09D14FF0500383F31188BFF36F8F30
:102BD000BFF34F8F7B61FEE797F833300133DBB2F1
:102BE0005AB2BB6B83F845200123FB6301E000234D
:102BF000FB637B6B3B613B6983F31188FB6B18467E
:102C00004037BD4680BD000080B58CB000AFF86095
:102C1000B9607A600023FB62FB68BB62BB6A002B71
:102C200009D14FF0500383F31188BFF36F8FBFF3C7
:102C30004F8F3B62FEE7BB68002B03D1BB6A1B6C66
:102C4000002B01D1012300E00023002B09D14FF01C
:102C5000500383F31188BFF36F8FBFF34F8FFB6176
:102C6000FEE7FEF761FF0346002B02D17B68002BD5
:102C700001D1012300E00023002B09D14FF05003C4
:102C800083F31188BFF36F8FBFF34F8FBB61FEE7F4
:102C9000FFF726FCBB6A9B6B7B627B6A002B1FD015
:102CA000B968B86A00F0F6F87B6A5A1EBB6A9A6384
:102CB000BB6A1B69002B0FD0BB6A10331846FEF7A6
:102CC00099FD0346002B07D03C4B4FF080521A6011
:102CD000BFF34F8FBFF36F8FFFF730FC012369E025
:102CE0007B68002B03D1FFF729FC002362E0FB6A1D
:102CF000002B06D107F110031846FEF7DDFD012376
:102D0000FB62FFF71BFCFEF72DFBFFF7E9FBBB6A3D
:102D100093F844305BB2B3F1FF3F03D1BB6A0022AA
:102D200083F84420BB6A93F845305BB2B3F1FF3FB0
:102D300003D1BB6A002283F84520FFF7FFFB3A1D51
:102D400007F1100311461846FEF7CCFD0346002B91
:102D500023D1B86A00F016F90346002B17D0BB6ADE
:102D600024337A6811461846FEF7F6FCB86A00F07C
:102D7000B7F8FEF705FB0346002B89D10F4B4FF048
:102D800080521A60BFF34F8FBFF36F8F80E7B86A2E
:102D900000F0A6F8FEF7F4FA7AE7B86A00F0A0F8B7
:102DA000FEF7EEFAB86A00F0EDF80346002B3FF4A8
:102DB0006FAF002318463037BD4680BD04ED00E0FC
:102DC00080B586B000AFF860B9607A6000237B619F
:102DD000FB689B6B3B61FB681B6C002B0DD1FB6898
:102DE0001B68002B4DD1FB689B681846FEF7BAFEA6
:102DF0007861FB6800229A6043E07B68002B19D160
:102E0000FB685868FB681B6C1A46B96800F0B4FE92
:102E1000FB685A68FB681B6C1A44FB685A60FB68C5
:102E20005A68FB689B689A422BD3FB681A68FB6858
:102E30005A6026E0FB68D868FB681B6C1A46B968C4
:102E400000F09AFEFB68DA68FB681B6C5B421A4470
:102E5000FB68DA60FB68DA68FB681B689A4207D295
:102E6000FB689A68FB681B6C5B421A44FB68DA607B
:102E70007B68022B05D13B69002B02D03B69013BEB
:102E80003B613B695A1CFB689A637B69184618379B
:102E9000BD4680BD80B582B000AF786039607B6888
:102EA0001B6C002B18D07B68DA687B681B6C1A449B
:102EB0007B68DA607B68DA687B689B689A4203D338
:102EC0007B681A687B68DA607B68D9687B681B6CF2
:102ED0001A46386800F050FE00BF0837BD4680BD76
:102EE00080B584B000AF7860FFF7FAFA7B6893F89A
:102EF0004530FB7311E07B685B6A002B12D07B6866
:102F000024331846FEF776FC0346002B01D0FEF76B
:102F10004DFDFB7B013BDBB2FB7397F90F30002BC0
:102F2000E9DC00E000BF7B68FF2283F84520FFF763
:102F300005FBFFF7D5FA7B6893F84430BB7311E0CB
:102F40007B681B69002B12D07B6810331846FEF794
:102F500051FC0346002B01D0FEF728FDBB7B013B53
:102F6000DBB2BB7397F90E30002BE9DC00E000BF49
:102F70007B68FF2283F84420FFF7E0FA00BF103798
:102F8000BD4680BD80B584B000AF7860FFF7A8FA79
:102F90007B689B6B002B02D10123FB6001E00023C7
:102FA000FB60FFF7CBFAFB6818461037BD4680BDC3
:102FB00080B584B000AF7860FFF792FA7B689A6BB7
:102FC0007B68DB6B9A4202D10123FB6001E00023A6
:102FD000FB60FFF7B3FAFB6818461037BD4680BDAB
:102FE00080B485B000AF786039600023FB6014E0E6
:102FF0000E4AFB6852F83330002B0BD10B49FB68AB
:103000003A6841F83320094AFB68DB0013447A68C8
:103010005A6005E0FB680133FB60FB68072BE7D9CA
:1030200000BF1437BD465DF8047B70477C3D00202F
:1030300080B586B000AFF860B9607A60FB687B61EC
:10304000FFF74EFA7B6993F844305BB2B3F1FF3F70
:1030500003D17B69002283F844207B6993F84530D3
:103060005BB2B3F1FF3F03D17B69002283F84520B7
:10307000FFF764FA7B699B6B002B06D17B692433D5
:103080007A68B9681846FEF78BFB7869FFF728FF66
:1030900000BF1837BD4680BD002103E00A4B5B58D6
:1030A0004350043109480A4B42189A42F6D3094A60
:1030B00002E0002342F8043B074B9A42F9D3FEF7A3
:1030C00063FFFDF729FC7047613D00080000002008
:1030D0001C0000201C000020BC3D0020FEE700007A
:1030E00080B588B000AF786000237B61FEF73AF9C5
:1030F000404B1B68002B04D100F0BEF83D4B012271
:103100001A607B68002B0ED008231A467B68134494
:103110007B607B6803F00703002B04D07B6823F0FF
:10312000070308337B607B68002B57D07B6843F62E
:10313000F732934252D8304BBB612F4B1B68FB6177
:1031400004E0FB69BB61FB691B68FB61FB695B68B1
:103150007A689A4203D9FB691B68002BF1D1FB699D
:10316000264A93423AD0BB691B68082213447B610C
:10317000FB691A68BB691A60FB695A687B68D31AD5
:1031800008225200934222D9FA697B681344FB60FB
:10319000FB695A687B68D21AFB685A60FB697A68D7
:1031A0005A60FB685B68BB60134B3B6102E03B69A4
:1031B0001B683B613B691B685B68BA689A42F6D83A
:1031C0003B691A68FB681A603B69FA681A600C4B25
:1031D0001A68FB695B68D31A094A1360FEF7D0F8D6
:1031E0007B69002B01D1FDF7DAFB7B69184620379C
:1031F000BD4680BD743D0020643D00206C3D002034
:103200001800002080B586B000AF78607B683B6115
:103210007B68002B27D008235B423A6913443B614B
:103220003B69FB60FEF79EF8FB685B68BB60104B78
:103230007B6102E07B691B687B617B691B685B6863
:10324000BA689A42F6D87B691A68FB681A607B698B
:10325000FA681A60FB685A68064B1B681344054AF3
:103260001360FEF78DF800BF1837BD4680BD00BF64
:10327000643D00201800002080B483B000AF104BE4
:1032800023F007037B600F4A7B6813600D4B00221D
:103290005A600D4B43F6F8325A600B4B00221A600D
:1032A0007B683B603B6843F6F8325A603B68064AED
:1032B0001A6000BF0C37BD465DF8047B704700BF45
:1032C0006C010020643D00206C3D002081F0004135
:1032D00002E000BF83F0004330B54FEA41044FEAFB
:1032E000430594EA050F08BF90EA020F1FBF54EA96
:1032F000000C55EA020C7FEA645C7FEA655C00F032
:10330000E2804FEA5454D4EB5555B8BF6D420CDD02
:103310002C4480EA020281EA030382EA000083EA85
:10332000010180EA020281EA0303362D88BF30BD25
:1033300011F0004F4FEA01314FF4801C4CEA11317B
:1033400002D0404261EB410113F0004F4FEA0333DA
:103350004CEA133302D0524263EB430394EA050F65
:1033600000F0A780A4F10104D5F1200E0DDB02FAD4
:103370000EFC22FA05F2801841F1000103FA0EF268
:10338000801843FA05F359410EE0A5F120050EF12E
:10339000200E012A03FA0EFC28BF4CF0020C43FA5F
:1033A00005F3C01851EBE37101F0004507D54FF06C
:1033B000000EDCF1000C7EEB00006EEB0101B1F5BC
:1033C000801F1BD3B1F5001F0CD349085FEA300002
:1033D0004FEA3C0C04F101044FEA445212F5800F0D
:1033E00080F09A80BCF1004F08BF5FEA500C50F1AA
:1033F000000041EB045141EA050130BD5FEA4C0C8D
:10340000404141EB010111F4801FA4F10104E9D115
:1034100091F0000F04BF01460020B1FA81F308BF0C
:103420002033A3F10B03B3F120020CDA0C3208DDD8
:1034300002F1140CC2F10C0201FA0CF021FA02F1B3
:103440000CE002F11402D8BFC2F1200C01FA02F123
:1034500020FA0CFCDCBF41EA0C019040E41AA2BF48
:1034600001EB0451294330BD6FEA04041F3C1CDA10
:103470000C340EDC04F11404C4F1200220FA04F030
:1034800001FA02F340EA030021FA04F345EA0301DA
:1034900030BDC4F10C04C4F1200220FA02F001FA9C
:1034A00004F340EA0300294630BD21FA04F029461E
:1034B00030BD94F0000F83F4801306BF81F48011B7
:1034C0000134013D4EE77FEA645C18BF7FEA655C2A
:1034D00029D094EA050F08BF90EA020F05D054EAFC
:1034E000000C04BF1946104630BD91EA030F1EBF01
:1034F0000021002030BD5FEA545C05D14000494105
:1035000028BF41F0004130BD14F580043CBF01F5F7
:10351000801130BD01F0004545F0FE4141F47001DD
:103520004FF0000030BD7FEA645C1ABF19461046B8
:103530007FEA655C1CBF0B46024650EA013406BFB9
:1035400052EA033591EA030F41F4002130BD00BF78
:1035500090F0000F04BF0021704730B54FF4806435
:1035600004F132044FF000054FF0000150E700BFB6
:1035700090F0000F04BF0021704730B54FF4806415
:1035800004F1320410F0004548BF40424FF0000102
:103590003EE700BF42004FEAE2014FEA31014FEA45
:1035A00002701FBF12F07F4393F07F4F81F0605194
:1035B000704732F07F4208BF704793F07F4F04BFDF
:1035C00041F40021704730B54FF4607401F00045BC
:1035D00021F000411CE700BF50EA010208BF70471C
:1035E00030B54FF000050AE050EA010208BF70470D
:1035F00030B511F0004502D5404261EB41014FF476
:10360000806404F132045FEA915C3FF4D8AE4FF07D
:1036100003025FEADC0C18BF03325FEADC0C18BF60
:10362000033202EBDC02C2F1200300FA03FC20FAB1
:1036300002F001FA03FE40EA0E0021FA02F11444FE
:10364000BDE600BF70B54FF0FF0C4CF4E06C1CEA17
:1036500011541DBF1CEA135594EA0C0F95EA0C0F88
:1036600000F0DEF82C4481EA030621EA4C5123EAFB
:103670004C5350EA013518BF52EA033541F480112A
:1036800043F4801338D0A0FB02CE4FF00005E1FBDD
:1036900002E506F00042E0FB03E54FF00006E1FB27
:1036A00003569CF0000F18BF4EF0010EA4F1FF046A
:1036B000B6F5007F64F5407404D25FEA4E0E6D41AA
:1036C00046EB060642EAC62141EA55514FEAC520BB
:1036D00040EA5E504FEACE2EB4F1FD0C88BFBCF537
:1036E000E06F1ED8BEF1004F08BF5FEA500E50F1E8
:1036F000000041EB045170BD06F0004646EA0101AE
:1037000040EA020081EA0301B4EB5C04C2BFD4EBDF
:103710000C0541EA045170BD41F480114FF0000ED8
:10372000013C00F3AB8014F1360FDEBF002001F046
:10373000004170BDC4F10004203C35DA0C341BDCC0
:1037400004F11404C4F1200500FA05F320FA04F092
:1037500001FA05F240EA020001F0004221F00041C6
:1037600010EBD37021FA04F642EB06015EEA430E39
:1037700008BF20EAD37070BDC4F10C04C4F1200569
:1037800000FA04F320FA05F001FA04F240EA02001C
:1037900001F0004110EBD37041F100015EEA430EED
:1037A00008BF20EAD37070BDC4F1200500FA05F20D
:1037B0004EEA020E20FA04F301FA05F243EA02038C
:1037C00021FA04F001F0004121FA04F220EA02009B
:1037D00000EBD3705EEA430E08BF20EAD37070BDE1
:1037E00094F0000F0FD101F00046400041EB0101C1
:1037F00011F4801F08BF013CF7D041EA060195F0A3
:10380000000F18BF704703F00046520043EB03035C
:1038100013F4801F08BF013DF7D043EA0603704749
:1038200094EA0C0F0CEA135518BF95EA0C0F0CD054
:1038300050EA410618BF52EA4306D1D181EA03019A
:1038400001F000414FF0000070BD50EA410606BF94
:103850001046194652EA430619D094EA0C0F02D1D9
:1038600050EA013613D195EA0C0F05D152EA03361E
:103870001CBF104619460AD181EA030101F000413C
:1038800041F0FE4141F470014FF0000070BD41F085
:10389000FE4141F4780170BD70B54FF0FF0C4CF45F
:1038A000E06C1CEA11541DBF1CEA135594EA0C0F7E
:1038B00095EA0C0F00F0A7F8A4EB050481EA030ECB
:1038C00052EA03354FEA013100F088804FEA0333B2
:1038D0004FF0805545EA131343EA12634FEA022280
:1038E00045EA111545EA10654FEA00260EF0004141
:1038F0009D4208BF964244F1FD0404F5407402D293
:103900005B084FEA3202B61A65EB03055B084FEA23
:1039100032024FF480104FF4002CB6EB020E75EB20
:10392000030E22BFB61A754640EA0C005B084FEA48
:103930003202B6EB020E75EB030E22BFB61A7546C5
:1039400040EA5C005B084FEA3202B6EB020E75EB10
:10395000030E22BFB61A754640EA9C005B084FEA88
:103960003202B6EB020E75EB030E22BFB61A754695
:1039700040EADC0055EA060E18D04FEA051545EA84
:1039800016754FEA06164FEAC30343EA52734FEA2D
:10399000C2025FEA1C1CC0D111F4801F0BD141EAA6
:1039A00000014FF000004FF0004CB6E711F4801F0B
:1039B00004BF01430020B4F1FD0C88BFBCF5E06FEB
:1039C0003FF6AFAEB5EB030C04BFB6EB020C5FEAFB
:1039D000500C50F1000041EB045170BD0EF0004E50
:1039E0004EEA113114EB5C04C2BFD4EB0C0541EA82
:1039F000045170BD41F480114FF0000E013C90E67F
:103A000045EA060E8DE60CEA135594EA0C0F08BF42
:103A100095EA0C0F3FF43BAF94EA0C0F0AD150EA41
:103A200001347FF434AF95EA0C0F7FF425AF1046D4
:103A300019462CE795EA0C0F06D152EA03353FF4FC
:103A4000FDAE1046194622E750EA410618BF52EA79
:103A500043067FF4C5AE50EA41047FF40DAF52EA4D
:103A600043057FF4EBAE12E74FF0FF3C06E000BFEA
:103A70004FF0010C02E000BF4FF0010C4DF804CDF7
:103A80004FEA410C7FEA6C5C4FEA430C18BF7FEAB7
:103A90006C5C1BD001B050EA410C0CBF52EA430CE5
:103AA00091EA030F02BF90EA020F0020704710F165
:103AB000000F91EA030F58BF994208BF90422CBFF4
:103AC000D8176FEAE37040F0010070474FEA410CED
:103AD0007FEA6C5C02D150EA013C07D14FEA430C0B
:103AE0007FEA6C5CD6D152EA033CD3D05DF8040B7C
:103AF000704700BF8446104662468C4619466346AE
:103B000000E000BF01B5FFF7B7FF002848BF10F184
:103B1000000F01BD4DF808EDFFF7F4FF0CBF0120C9
:103B200000205DF808FB00BF4DF808EDFFF7EAFF45
:103B300034BF012000205DF808FB00BF4DF808ED00
:103B4000FFF7E0FF94BF012000205DF808FB00BFF5
:103B50004DF808EDFFF7CEFF94BF012000205DF87F
:103B600008FB00BF4DF808EDFFF7C4FF34BF01208C
:103B700000205DF808FB00BF844641EA000313F013
:103B800003036DD1403A41D351F8043B40F8043B64
:103B900051F8043B40F8043B51F8043B40F8043B27
:103BA00051F8043B40F8043B51F8043B40F8043B17
:103BB00051F8043B40F8043B51F8043B40F8043B07
:103BC00051F8043B40F8043B51F8043B40F8043BF7
:103BD00051F8043B40F8043B51F8043B40F8043BE7
:103BE00051F8043B40F8043B51F8043B40F8043BD7
:103BF00051F8043B40F8043B51F8043B40F8043BC7
:103C000051F8043B40F8043B403ABDD2303211D366
:103C100051F8043B40F8043B51F8043B40F8043BA6
:103C200051F8043B40F8043B51F8043B40F8043B96
:103C3000103AEDD20C3205D351F8043B40F8043B66
:103C4000043AF9D2043208D0D2071CBF11F8013B64
:103C500000F8013B01D30B8803806046704700BF2A
:103C6000082A13D38B078DD010F003038AD0C3F139
:103C70000403D21ADB071CBF11F8013B00F8013B1B
:103C800080D331F8023B20F8023B7BE7043AD9D3DA
:103C9000013A11F8013B00F8013BF9D20B780370AF
:103CA0004B7843708B78837060467047F0B486071A
:103CB00043D0541E002A3ED0CAB2034602E014F19B
:103CC000FF3438D303F8012B9D07F8D1032C2BD9EF
:103CD000CDB245EA05250F2C45EA054516D9A4F1D4
:103CE00010073F0903F1200606EB071603F1100247
:103CF00042E9045542E902551032B242F8D104F0CB
:103D00000F040137032C03EB07130DD91E4622467F
:103D1000043A032A46F8045BFAD8221F22F0030271
:103D20000432134404F003042CB1C9B21C4403F858
:103D3000011B9C42FBD1F0BC704714460346C5E70B
:103D40004759524F000000004C454400546D72200A
:103D500053766300546D72510000000049444C4595
:013D60000062
:103D610000A24A0400000000000000000102030458
:0C3D710006070809AAAAAAAAF83B00004D
:0400000508000000EF
:00000001FF
